{
  "contractName": "DonationService",
  "abi": [
    {
      "inputs": [],
      "stateMutability": "nonpayable",
      "type": "constructor"
    },
    {
      "anonymous": false,
      "inputs": [
        {
          "indexed": true,
          "internalType": "address",
          "name": "owner",
          "type": "address"
        },
        {
          "indexed": true,
          "internalType": "address",
          "name": "spender",
          "type": "address"
        },
        {
          "indexed": false,
          "internalType": "uint256",
          "name": "value",
          "type": "uint256"
        }
      ],
      "name": "Approval",
      "type": "event"
    },
    {
      "anonymous": false,
      "inputs": [
        {
          "indexed": true,
          "internalType": "address",
          "name": "from",
          "type": "address"
        },
        {
          "indexed": true,
          "internalType": "address",
          "name": "to",
          "type": "address"
        },
        {
          "indexed": false,
          "internalType": "uint256",
          "name": "value",
          "type": "uint256"
        }
      ],
      "name": "Transfer",
      "type": "event"
    },
    {
      "inputs": [
        {
          "internalType": "address",
          "name": "owner",
          "type": "address"
        },
        {
          "internalType": "address",
          "name": "spender",
          "type": "address"
        }
      ],
      "name": "allowance",
      "outputs": [
        {
          "internalType": "uint256",
          "name": "",
          "type": "uint256"
        }
      ],
      "stateMutability": "view",
      "type": "function",
      "constant": true
    },
    {
      "inputs": [
        {
          "internalType": "address",
          "name": "spender",
          "type": "address"
        },
        {
          "internalType": "uint256",
          "name": "amount",
          "type": "uint256"
        }
      ],
      "name": "approve",
      "outputs": [
        {
          "internalType": "bool",
          "name": "",
          "type": "bool"
        }
      ],
      "stateMutability": "nonpayable",
      "type": "function"
    },
    {
      "inputs": [
        {
          "internalType": "address",
          "name": "account",
          "type": "address"
        }
      ],
      "name": "balanceOf",
      "outputs": [
        {
          "internalType": "uint256",
          "name": "",
          "type": "uint256"
        }
      ],
      "stateMutability": "view",
      "type": "function",
      "constant": true
    },
    {
      "inputs": [],
      "name": "decimals",
      "outputs": [
        {
          "internalType": "uint8",
          "name": "",
          "type": "uint8"
        }
      ],
      "stateMutability": "view",
      "type": "function",
      "constant": true
    },
    {
      "inputs": [
        {
          "internalType": "address",
          "name": "spender",
          "type": "address"
        },
        {
          "internalType": "uint256",
          "name": "subtractedValue",
          "type": "uint256"
        }
      ],
      "name": "decreaseAllowance",
      "outputs": [
        {
          "internalType": "bool",
          "name": "",
          "type": "bool"
        }
      ],
      "stateMutability": "nonpayable",
      "type": "function"
    },
    {
      "inputs": [],
      "name": "fee",
      "outputs": [
        {
          "internalType": "uint256",
          "name": "",
          "type": "uint256"
        }
      ],
      "stateMutability": "view",
      "type": "function",
      "constant": true
    },
    {
      "inputs": [
        {
          "internalType": "address",
          "name": "spender",
          "type": "address"
        },
        {
          "internalType": "uint256",
          "name": "addedValue",
          "type": "uint256"
        }
      ],
      "name": "increaseAllowance",
      "outputs": [
        {
          "internalType": "bool",
          "name": "",
          "type": "bool"
        }
      ],
      "stateMutability": "nonpayable",
      "type": "function"
    },
    {
      "inputs": [],
      "name": "name",
      "outputs": [
        {
          "internalType": "string",
          "name": "",
          "type": "string"
        }
      ],
      "stateMutability": "view",
      "type": "function",
      "constant": true
    },
    {
      "inputs": [],
      "name": "owner",
      "outputs": [
        {
          "internalType": "address",
          "name": "",
          "type": "address"
        }
      ],
      "stateMutability": "view",
      "type": "function",
      "constant": true
    },
    {
      "inputs": [],
      "name": "symbol",
      "outputs": [
        {
          "internalType": "string",
          "name": "",
          "type": "string"
        }
      ],
      "stateMutability": "view",
      "type": "function",
      "constant": true
    },
    {
      "inputs": [],
      "name": "totalSupply",
      "outputs": [
        {
          "internalType": "uint256",
          "name": "",
          "type": "uint256"
        }
      ],
      "stateMutability": "view",
      "type": "function",
      "constant": true
    },
    {
      "inputs": [
        {
          "internalType": "address",
          "name": "recipient",
          "type": "address"
        },
        {
          "internalType": "uint256",
          "name": "amount",
          "type": "uint256"
        }
      ],
      "name": "transfer",
      "outputs": [
        {
          "internalType": "bool",
          "name": "",
          "type": "bool"
        }
      ],
      "stateMutability": "nonpayable",
      "type": "function"
    },
    {
      "inputs": [
        {
          "internalType": "address",
          "name": "sender",
          "type": "address"
        },
        {
          "internalType": "address",
          "name": "recipient",
          "type": "address"
        },
        {
          "internalType": "uint256",
          "name": "amount",
          "type": "uint256"
        }
      ],
      "name": "transferFrom",
      "outputs": [
        {
          "internalType": "bool",
          "name": "",
          "type": "bool"
        }
      ],
      "stateMutability": "nonpayable",
      "type": "function"
    },
    {
      "inputs": [
        {
          "internalType": "uint256",
          "name": "charityIndex",
          "type": "uint256"
        },
        {
          "internalType": "uint256",
          "name": "usdDonated",
          "type": "uint256"
        }
      ],
      "name": "placeDonation",
      "outputs": [],
      "stateMutability": "payable",
      "type": "function",
      "payable": true
    },
    {
      "inputs": [
        {
          "internalType": "uint256",
          "name": "tokenRedeem",
          "type": "uint256"
        }
      ],
      "name": "redeemToken",
      "outputs": [],
      "stateMutability": "nonpayable",
      "type": "function"
    },
    {
      "inputs": [],
      "name": "withdrawETH",
      "outputs": [],
      "stateMutability": "nonpayable",
      "type": "function"
    },
    {
      "inputs": [
        {
          "internalType": "address",
          "name": "donator",
          "type": "address"
        }
      ],
      "name": "showTotalDonationETH",
      "outputs": [
        {
          "internalType": "uint256",
          "name": "",
          "type": "uint256"
        }
      ],
      "stateMutability": "view",
      "type": "function",
      "constant": true
    },
    {
      "inputs": [
        {
          "internalType": "address",
          "name": "donator",
          "type": "address"
        }
      ],
      "name": "showTotalDonationUSD",
      "outputs": [
        {
          "internalType": "uint256",
          "name": "",
          "type": "uint256"
        }
      ],
      "stateMutability": "view",
      "type": "function",
      "constant": true
    },
    {
      "inputs": [
        {
          "internalType": "address",
          "name": "donator",
          "type": "address"
        }
      ],
      "name": "showTokenBal",
      "outputs": [
        {
          "internalType": "uint256",
          "name": "",
          "type": "uint256"
        }
      ],
      "stateMutability": "view",
      "type": "function",
      "constant": true
    },
    {
      "inputs": [
        {
          "internalType": "address",
          "name": "donator",
          "type": "address"
        }
      ],
      "name": "showTokenRedeemed",
      "outputs": [
        {
          "internalType": "uint256",
          "name": "",
          "type": "uint256"
        }
      ],
      "stateMutability": "view",
      "type": "function",
      "constant": true
    },
    {
      "inputs": [
        {
          "internalType": "address",
          "name": "charity",
          "type": "address"
        }
      ],
      "name": "showContractETHBal",
      "outputs": [
        {
          "internalType": "uint256",
          "name": "",
          "type": "uint256"
        }
      ],
      "stateMutability": "view",
      "type": "function",
      "constant": true
    },
    {
      "inputs": [
        {
          "internalType": "uint256",
          "name": "newFee",
          "type": "uint256"
        }
      ],
      "name": "changeFee",
      "outputs": [],
      "stateMutability": "nonpayable",
      "type": "function"
    },
    {
      "inputs": [
        {
          "internalType": "address",
          "name": "charity",
          "type": "address"
        }
      ],
      "name": "addCharity",
      "outputs": [],
      "stateMutability": "nonpayable",
      "type": "function"
    },
    {
      "inputs": [],
      "name": "showCharity",
      "outputs": [
        {
          "internalType": "address[]",
          "name": "",
          "type": "address[]"
        }
      ],
      "stateMutability": "view",
      "type": "function",
      "constant": true
    },
    {
      "inputs": [],
      "name": "showFee",
      "outputs": [
        {
          "internalType": "uint256",
          "name": "",
          "type": "uint256"
        }
      ],
      "stateMutability": "view",
      "type": "function",
      "constant": true
    }
  ],
  "bytecode": "0x608060405233600560016101000a81548173ffffffffffffffffffffffffffffffffffffffff021916908373ffffffffffffffffffffffffffffffffffffffff16021790555060016007553480156200005757600080fd5b506040518060400160405280601381526020017f50656163656f66476976696e6720546f6b656e000000000000000000000000008152506040518060400160405280600381526020017f504f4700000000000000000000000000000000000000000000000000000000008152508160039080519060200190620000dc9291906200011a565b508060049080519060200190620000f59291906200011a565b506012600560006101000a81548160ff021916908360ff1602179055505050620001d0565b828054600181600116156101000203166002900490600052602060002090601f0160209004810192826200015257600085556200019e565b82601f106200016d57805160ff19168380011785556200019e565b828001600101855582156200019e579182015b828111156200019d57825182559160200191906001019062000180565b5b509050620001ad9190620001b1565b5090565b5b80821115620001cc576000816000905550600101620001b2565b5090565b61250d80620001e06000396000f3fe6080604052600436106101665760003560e01c806378b14f0a116100d1578063d1c6339f1161008a578063dd62ed3e11610064578063dd62ed3e14610936578063ddca3f43146109bb578063e086e5ec146109e6578063e8b982c1146109fd57610166565b8063d1c6339f1461083a578063d1ffb69814610865578063d650bd12146108ca57610166565b806378b14f0a146105d15780638da5cb5b1461062257806395d89b4114610663578063a1cbe3d8146106f3578063a457c2d714610758578063a9059cbb146107c957610166565b806323b96add1161012357806323b96add146103c8578063313ce5671461042d578063395093511461045b5780634b5d4713146104cc5780636a1db1bf1461053157806370a082311461056c57610166565b8063013054c21461016b57806306fdde03146101a6578063095ea7b3146102365780630c34b2d1146102a757806318160ddd1461030c57806323b872dd14610337575b600080fd5b34801561017757600080fd5b506101a46004803603602081101561018e57600080fd5b8101908080359060200190929190505050610a35565b005b3480156101b257600080fd5b506101bb610b97565b6040518080602001828103825283818151815260200191508051906020019080838360005b838110156101fb5780820151818401526020810190506101e0565b50505050905090810190601f1680156102285780820380516001836020036101000a031916815260200191505b509250505060405180910390f35b34801561024257600080fd5b5061028f6004803603604081101561025957600080fd5b81019080803573ffffffffffffffffffffffffffffffffffffffff16906020019092919080359060200190929190505050610c39565b60405180821515815260200191505060405180910390f35b3480156102b357600080fd5b506102f6600480360360208110156102ca57600080fd5b81019080803573ffffffffffffffffffffffffffffffffffffffff169060200190929190505050610c57565b6040518082815260200191505060405180910390f35b34801561031857600080fd5b50610321610ca0565b6040518082815260200191505060405180910390f35b34801561034357600080fd5b506103b06004803603606081101561035a57600080fd5b81019080803573ffffffffffffffffffffffffffffffffffffffff169060200190929190803573ffffffffffffffffffffffffffffffffffffffff16906020019092919080359060200190929190505050610caa565b60405180821515815260200191505060405180910390f35b3480156103d457600080fd5b50610417600480360360208110156103eb57600080fd5b81019080803573ffffffffffffffffffffffffffffffffffffffff169060200190929190505050610d83565b6040518082815260200191505060405180910390f35b34801561043957600080fd5b50610442610dcc565b604051808260ff16815260200191505060405180910390f35b34801561046757600080fd5b506104b46004803603604081101561047e57600080fd5b81019080803573ffffffffffffffffffffffffffffffffffffffff16906020019092919080359060200190929190505050610de3565b60405180821515815260200191505060405180910390f35b3480156104d857600080fd5b5061051b600480360360208110156104ef57600080fd5b81019080803573ffffffffffffffffffffffffffffffffffffffff169060200190929190505050610e96565b6040518082815260200191505060405180910390f35b34801561053d57600080fd5b5061056a6004803603602081101561055457600080fd5b8101908080359060200190929190505050610edf565b005b34801561057857600080fd5b506105bb6004803603602081101561058f57600080fd5b81019080803573ffffffffffffffffffffffffffffffffffffffff169060200190929190505050610f8f565b6040518082815260200191505060405180910390f35b3480156105dd57600080fd5b50610620600480360360208110156105f457600080fd5b81019080803573ffffffffffffffffffffffffffffffffffffffff169060200190929190505050610fd7565b005b34801561062e57600080fd5b506106376110e3565b604051808273ffffffffffffffffffffffffffffffffffffffff16815260200191505060405180910390f35b34801561066f57600080fd5b50610678611109565b6040518080602001828103825283818151815260200191508051906020019080838360005b838110156106b857808201518184015260208101905061069d565b50505050905090810190601f1680156106e55780820380516001836020036101000a031916815260200191505b509250505060405180910390f35b3480156106ff57600080fd5b506107426004803603602081101561071657600080fd5b81019080803573ffffffffffffffffffffffffffffffffffffffff1690602001909291905050506111ab565b6040518082815260200191505060405180910390f35b34801561076457600080fd5b506107b16004803603604081101561077b57600080fd5b81019080803573ffffffffffffffffffffffffffffffffffffffff169060200190929190803590602001909291905050506111f4565b60405180821515815260200191505060405180910390f35b3480156107d557600080fd5b50610822600480360360408110156107ec57600080fd5b81019080803573ffffffffffffffffffffffffffffffffffffffff169060200190929190803590602001909291905050506112c1565b60405180821515815260200191505060405180910390f35b34801561084657600080fd5b5061084f6112df565b6040518082815260200191505060405180910390f35b34801561087157600080fd5b506108b46004803603602081101561088857600080fd5b81019080803573ffffffffffffffffffffffffffffffffffffffff16906020019092919050505061138f565b6040518082815260200191505060405180910390f35b3480156108d657600080fd5b506108df6113d8565b6040518080602001828103825283818151815260200191508051906020019060200280838360005b83811015610922578082015181840152602081019050610907565b505050509050019250505060405180910390f35b34801561094257600080fd5b506109a56004803603604081101561095957600080fd5b81019080803573ffffffffffffffffffffffffffffffffffffffff169060200190929190803573ffffffffffffffffffffffffffffffffffffffff16906020019092919050505061150c565b6040518082815260200191505060405180910390f35b3480156109c757600080fd5b506109d0611593565b6040518082815260200191505060405180910390f35b3480156109f257600080fd5b506109fb611599565b005b610a3360048036036040811015610a1357600080fd5b8101908080359060200190929190803590602001909291905050506116fe565b005b600033905081600b60008373ffffffffffffffffffffffffffffffffffffffff1673ffffffffffffffffffffffffffffffffffffffff168152602001908152602001600020541015610aef576040517f08c379a00000000000000000000000000000000000000000000000000000000081526004018080602001828103825260178152602001807f496e73756666696369656e7420504f4720746f6b656e7300000000000000000081525060200191505060405180910390fd5b81600c60008373ffffffffffffffffffffffffffffffffffffffff1673ffffffffffffffffffffffffffffffffffffffff1681526020019081526020016000206000828254019250508190555081600b60008373ffffffffffffffffffffffffffffffffffffffff1673ffffffffffffffffffffffffffffffffffffffff16815260200190815260200160002060008282540392505081905550610b93818361198b565b5050565b606060038054600181600116156101000203166002900480601f016020809104026020016040519081016040528092919081815260200182805460018160011615610100020316600290048015610c2f5780601f10610c0457610100808354040283529160200191610c2f565b820191906000526020600020905b815481529060010190602001808311610c1257829003601f168201915b5050505050905090565b6000610c4d610c46611b4f565b8484611b57565b6001905092915050565b6000600960008373ffffffffffffffffffffffffffffffffffffffff1673ffffffffffffffffffffffffffffffffffffffff168152602001908152602001600020549050919050565b6000600254905090565b6000610cb7848484611d4e565b610d7884610cc3611b4f565b610d738560405180606001604052806028815260200161242160289139600160008b73ffffffffffffffffffffffffffffffffffffffff1673ffffffffffffffffffffffffffffffffffffffff1681526020019081526020016000206000610d29611b4f565b73ffffffffffffffffffffffffffffffffffffffff1673ffffffffffffffffffffffffffffffffffffffff1681526020019081526020016000205461200f9092919063ffffffff16565b611b57565b600190509392505050565b6000600860008373ffffffffffffffffffffffffffffffffffffffff1673ffffffffffffffffffffffffffffffffffffffff168152602001908152602001600020549050919050565b6000600560009054906101000a900460ff16905090565b6000610e8c610df0611b4f565b84610e878560016000610e01611b4f565b73ffffffffffffffffffffffffffffffffffffffff1673ffffffffffffffffffffffffffffffffffffffff16815260200190815260200160002060008973ffffffffffffffffffffffffffffffffffffffff1673ffffffffffffffffffffffffffffffffffffffff168152602001908152602001600020546120cf90919063ffffffff16565b611b57565b6001905092915050565b6000600a60008373ffffffffffffffffffffffffffffffffffffffff1673ffffffffffffffffffffffffffffffffffffffff168152602001908152602001600020549050919050565b600560019054906101000a900473ffffffffffffffffffffffffffffffffffffffff1673ffffffffffffffffffffffffffffffffffffffff163373ffffffffffffffffffffffffffffffffffffffff1614610f85576040517f08c379a00000000000000000000000000000000000000000000000000000000081526004018080602001828103825260268152602001806123b36026913960400191505060405180910390fd5b8060078190555050565b60008060008373ffffffffffffffffffffffffffffffffffffffff1673ffffffffffffffffffffffffffffffffffffffff168152602001908152602001600020549050919050565b600560019054906101000a900473ffffffffffffffffffffffffffffffffffffffff1673ffffffffffffffffffffffffffffffffffffffff163373ffffffffffffffffffffffffffffffffffffffff161461107d576040517f08c379a00000000000000000000000000000000000000000000000000000000081526004018080602001828103825260268152602001806123b36026913960400191505060405180910390fd5b6006819080600181540180825580915050600190039060005260206000200160009091909190916101000a81548173ffffffffffffffffffffffffffffffffffffffff021916908373ffffffffffffffffffffffffffffffffffffffff16021790555050565b600560019054906101000a900473ffffffffffffffffffffffffffffffffffffffff1681565b606060048054600181600116156101000203166002900480601f0160208091040260200160405190810160405280929190818152602001828054600181600116156101000203166002900480156111a15780601f10611176576101008083540402835291602001916111a1565b820191906000526020600020905b81548152906001019060200180831161118457829003601f168201915b5050505050905090565b6000600b60008373ffffffffffffffffffffffffffffffffffffffff1673ffffffffffffffffffffffffffffffffffffffff168152602001908152602001600020549050919050565b60006112b7611201611b4f565b846112b2856040518060600160405280602581526020016124b3602591396001600061122b611b4f565b73ffffffffffffffffffffffffffffffffffffffff1673ffffffffffffffffffffffffffffffffffffffff16815260200190815260200160002060008a73ffffffffffffffffffffffffffffffffffffffff1673ffffffffffffffffffffffffffffffffffffffff1681526020019081526020016000205461200f9092919063ffffffff16565b611b57565b6001905092915050565b60006112d56112ce611b4f565b8484611d4e565b6001905092915050565b6000600560019054906101000a900473ffffffffffffffffffffffffffffffffffffffff1673ffffffffffffffffffffffffffffffffffffffff163373ffffffffffffffffffffffffffffffffffffffff1614611387576040517f08c379a00000000000000000000000000000000000000000000000000000000081526004018080602001828103825260268152602001806123b36026913960400191505060405180910390fd5b600754905090565b6000600c60008373ffffffffffffffffffffffffffffffffffffffff1673ffffffffffffffffffffffffffffffffffffffff168152602001908152602001600020549050919050565b6060600560019054906101000a900473ffffffffffffffffffffffffffffffffffffffff1673ffffffffffffffffffffffffffffffffffffffff163373ffffffffffffffffffffffffffffffffffffffff1614611480576040517f08c379a00000000000000000000000000000000000000000000000000000000081526004018080602001828103825260268152602001806123b36026913960400191505060405180910390fd5b600680548060200260200160405190810160405280929190818152602001828054801561150257602002820191906000526020600020905b8160009054906101000a900473ffffffffffffffffffffffffffffffffffffffff1673ffffffffffffffffffffffffffffffffffffffff16815260200190600101908083116114b8575b5050505050905090565b6000600160008473ffffffffffffffffffffffffffffffffffffffff1673ffffffffffffffffffffffffffffffffffffffff16815260200190815260200160002060008373ffffffffffffffffffffffffffffffffffffffff1673ffffffffffffffffffffffffffffffffffffffff16815260200190815260200160002054905092915050565b60075481565b60003390506000600860008373ffffffffffffffffffffffffffffffffffffffff1673ffffffffffffffffffffffffffffffffffffffff1681526020019081526020016000205490506000811415611659576040517f08c379a000000000000000000000000000000000000000000000000000000000815260040180806020018281038252601b8152602001807f4e6f2065746865722073746f72656420696e20636f6e7472616374000000000081525060200191505060405180910390fd5b8047101561166657600080fd5b80600860008473ffffffffffffffffffffffffffffffffffffffff1673ffffffffffffffffffffffffffffffffffffffff168152602001908152602001600020600082825403925050819055508173ffffffffffffffffffffffffffffffffffffffff166108fc829081150290604051600060405180830381858888f193505050501580156116f9573d6000803e3d6000fd5b505050565b6000341415611775576040517f08c379a00000000000000000000000000000000000000000000000000000000081526004018080602001828103825260158152602001807f4e6f20455448206973207472616e73666572726564000000000000000000000081525060200191505060405180910390fd5b600033905060003490506000606460075483028161178f57fe5b049050600081830390506000600687815481106117a857fe5b9060005260206000200160009054906101000a900473ffffffffffffffffffffffffffffffffffffffff1690508260086000600560019054906101000a900473ffffffffffffffffffffffffffffffffffffffff1673ffffffffffffffffffffffffffffffffffffffff1673ffffffffffffffffffffffffffffffffffffffff1681526020019081526020016000206000828254019250508190555081600860008373ffffffffffffffffffffffffffffffffffffffff1673ffffffffffffffffffffffffffffffffffffffff1681526020019081526020016000206000828254019250508190555083600960008773ffffffffffffffffffffffffffffffffffffffff1673ffffffffffffffffffffffffffffffffffffffff1681526020019081526020016000206000828254019250508190555085600a60008773ffffffffffffffffffffffffffffffffffffffff1673ffffffffffffffffffffffffffffffffffffffff1681526020019081526020016000206000828254019250508190555085600b60008773ffffffffffffffffffffffffffffffffffffffff1673ffffffffffffffffffffffffffffffffffffffff168152602001908152602001600020600082825401925050819055506119828587612157565b50505050505050565b600073ffffffffffffffffffffffffffffffffffffffff168273ffffffffffffffffffffffffffffffffffffffff161415611a11576040517f08c379a00000000000000000000000000000000000000000000000000000000081526004018080602001828103825260218152602001806124496021913960400191505060405180910390fd5b611a1d8260008361231e565b611a8881604051806060016040528060228152602001612391602291396000808673ffffffffffffffffffffffffffffffffffffffff1673ffffffffffffffffffffffffffffffffffffffff1681526020019081526020016000205461200f9092919063ffffffff16565b6000808473ffffffffffffffffffffffffffffffffffffffff1673ffffffffffffffffffffffffffffffffffffffff16815260200190815260200160002081905550611adf8160025461232390919063ffffffff16565b600281905550600073ffffffffffffffffffffffffffffffffffffffff168273ffffffffffffffffffffffffffffffffffffffff167fddf252ad1be2c89b69c2b068fc378daa952ba7f163c4a11628f55a4df523b3ef836040518082815260200191505060405180910390a35050565b600033905090565b600073ffffffffffffffffffffffffffffffffffffffff168373ffffffffffffffffffffffffffffffffffffffff161415611bdd576040517f08c379a000000000000000000000000000000000000000000000000000000000815260040180806020018281038252602481526020018061248f6024913960400191505060405180910390fd5b600073ffffffffffffffffffffffffffffffffffffffff168273ffffffffffffffffffffffffffffffffffffffff161415611c63576040517f08c379a00000000000000000000000000000000000000000000000000000000081526004018080602001828103825260228152602001806123d96022913960400191505060405180910390fd5b80600160008573ffffffffffffffffffffffffffffffffffffffff1673ffffffffffffffffffffffffffffffffffffffff16815260200190815260200160002060008473ffffffffffffffffffffffffffffffffffffffff1673ffffffffffffffffffffffffffffffffffffffff168152602001908152602001600020819055508173ffffffffffffffffffffffffffffffffffffffff168373ffffffffffffffffffffffffffffffffffffffff167f8c5be1e5ebec7d5bd14f71427d1e84f3dd0314c0f7b2291e5b200ac8c7c3b925836040518082815260200191505060405180910390a3505050565b600073ffffffffffffffffffffffffffffffffffffffff168373ffffffffffffffffffffffffffffffffffffffff161415611dd4576040517f08c379a000000000000000000000000000000000000000000000000000000000815260040180806020018281038252602581526020018061246a6025913960400191505060405180910390fd5b600073ffffffffffffffffffffffffffffffffffffffff168273ffffffffffffffffffffffffffffffffffffffff161415611e5a576040517f08c379a000000000000000000000000000000000000000000000000000000000815260040180806020018281038252602381526020018061236e6023913960400191505060405180910390fd5b611e6583838361231e565b611ed0816040518060600160405280602681526020016123fb602691396000808773ffffffffffffffffffffffffffffffffffffffff1673ffffffffffffffffffffffffffffffffffffffff1681526020019081526020016000205461200f9092919063ffffffff16565b6000808573ffffffffffffffffffffffffffffffffffffffff1673ffffffffffffffffffffffffffffffffffffffff16815260200190815260200160002081905550611f63816000808573ffffffffffffffffffffffffffffffffffffffff1673ffffffffffffffffffffffffffffffffffffffff168152602001908152602001600020546120cf90919063ffffffff16565b6000808473ffffffffffffffffffffffffffffffffffffffff1673ffffffffffffffffffffffffffffffffffffffff168152602001908152602001600020819055508173ffffffffffffffffffffffffffffffffffffffff168373ffffffffffffffffffffffffffffffffffffffff167fddf252ad1be2c89b69c2b068fc378daa952ba7f163c4a11628f55a4df523b3ef836040518082815260200191505060405180910390a3505050565b60008383111582906120bc576040517f08c379a00000000000000000000000000000000000000000000000000000000081526004018080602001828103825283818151815260200191508051906020019080838360005b83811015612081578082015181840152602081019050612066565b50505050905090810190601f1680156120ae5780820380516001836020036101000a031916815260200191505b509250505060405180910390fd5b5060008385039050809150509392505050565b60008082840190508381101561214d576040517f08c379a000000000000000000000000000000000000000000000000000000000815260040180806020018281038252601b8152602001807f536166654d6174683a206164646974696f6e206f766572666c6f77000000000081525060200191505060405180910390fd5b8091505092915050565b600073ffffffffffffffffffffffffffffffffffffffff168273ffffffffffffffffffffffffffffffffffffffff1614156121fa576040517f08c379a000000000000000000000000000000000000000000000000000000000815260040180806020018281038252601f8152602001807f45524332303a206d696e7420746f20746865207a65726f20616464726573730081525060200191505060405180910390fd5b6122066000838361231e565b61221b816002546120cf90919063ffffffff16565b600281905550612272816000808573ffffffffffffffffffffffffffffffffffffffff1673ffffffffffffffffffffffffffffffffffffffff168152602001908152602001600020546120cf90919063ffffffff16565b6000808473ffffffffffffffffffffffffffffffffffffffff1673ffffffffffffffffffffffffffffffffffffffff168152602001908152602001600020819055508173ffffffffffffffffffffffffffffffffffffffff16600073ffffffffffffffffffffffffffffffffffffffff167fddf252ad1be2c89b69c2b068fc378daa952ba7f163c4a11628f55a4df523b3ef836040518082815260200191505060405180910390a35050565b505050565b600061236583836040518060400160405280601e81526020017f536166654d6174683a207375627472616374696f6e206f766572666c6f77000081525061200f565b90509291505056fe45524332303a207472616e7366657220746f20746865207a65726f206164647265737345524332303a206275726e20616d6f756e7420657863656564732062616c616e63654f6e6c7920746865206f776e65722063616e2063616c6c20746869732066756e6374696f6e2e45524332303a20617070726f766520746f20746865207a65726f206164647265737345524332303a207472616e7366657220616d6f756e7420657863656564732062616c616e636545524332303a207472616e7366657220616d6f756e74206578636565647320616c6c6f77616e636545524332303a206275726e2066726f6d20746865207a65726f206164647265737345524332303a207472616e736665722066726f6d20746865207a65726f206164647265737345524332303a20617070726f76652066726f6d20746865207a65726f206164647265737345524332303a2064656372656173656420616c6c6f77616e63652062656c6f77207a65726fa26469706673582212208806784ce7108ca58b9652d56de0ba49cd3843a0f164e422139caf490fb8e46e64736f6c63430007060033",
  "immutableReferences": {},
  "source": "// SPDX-License-Identifier: MIT\r\n\r\npragma solidity ^0.7.5;\r\n\r\nimport \"@openzeppelin/contracts/token/ERC20/ERC20.sol\";\r\n\r\ncontract DonationService is ERC20 {\r\n    // set deployer address as variable owner, create array of charities' address and set fee as 1%\r\n    address public owner = msg.sender;\r\n    address[] internal charities;\r\n    uint256 public fee = 1;\r\n    // create mapping array for deployer's and charities' wallet to balance (in ETH)\r\n    mapping(address => uint256) internal ethBalance;\r\n    // create mapping array for donator's wallet to total donation amount given (in ETH)\r\n    mapping(address => uint256) internal totalDonationETH;\r\n    // create mapping array for donator's wallet to total donation amount given (in USD)\r\n    mapping(address => uint256) internal totalDonationUSD;\r\n    // create mapping array for donator's wallet to token balance\r\n    mapping(address => uint256) internal tokenBal;\r\n    // create mapping array for donator's wallet to total number of tokens used\r\n    mapping(address => uint256) internal tokenUsed;\r\n\r\n    // contruct the token with name, symbol and set as default 18 decimals\r\n    constructor() ERC20(\"PeaceofGiving Token\", \"POG\") {}\r\n\r\n    // function to send ether to smart contract in exchange for token upon donation\r\n    function placeDonation(uint256 charityIndex, uint256 usdDonated)\r\n        public\r\n        payable\r\n    {\r\n        require(msg.value != 0, \"No ETH is transferred\");\r\n        // set caller as variable donator and message value as variable donation\r\n        address donator = msg.sender;\r\n        uint256 donation = msg.value;\r\n        uint256 donationOwner = (donation * fee) / 100;\r\n        uint256 donationCharity = donation - donationOwner;\r\n        // retrieve charity's address with provided index in charities array\r\n        address charity = charities[charityIndex];\r\n        // add amount to charity in ethBalance mapping array\r\n        ethBalance[owner] += donationOwner;\r\n        ethBalance[charity] += donationCharity;\r\n        // add amount to caller in totalDonationETH mapping array\r\n        totalDonationETH[donator] += donation;\r\n        // add amount to caller in totalDonationUSD mapping array\r\n        totalDonationUSD[donator] += usdDonated;\r\n        // add amount to caller in tokenBal mapping array\r\n        tokenBal[donator] += usdDonated;\r\n        // create tokens and tag to caller address\r\n        _mint(donator, usdDonated);\r\n    }\r\n\r\n    // function to destroy tokens upon redemption\r\n    function redeemToken(uint256 tokenRedeem) public {\r\n        // set caller as variable donator\r\n        address donator = msg.sender;\r\n        // guard check to ensure donator token balance is sufficient\r\n        require(tokenBal[donator] >= tokenRedeem, \"Insufficient POG tokens\");\r\n        // add tokens to caller in tokenUsed mapping array\r\n        tokenUsed[donator] += tokenRedeem;\r\n        // deduct amount to caller in tokenBal mapping array\r\n        tokenBal[donator] -= tokenRedeem;\r\n        // destroy the tokens tagged to caller\r\n        _burn(donator, tokenRedeem);\r\n    }\r\n\r\n    //function to withdraw ether balance in smart contract\r\n    function withdrawETH() public {\r\n        // set caller as payable variable acct\r\n        address payable acct = msg.sender;\r\n        // retrieve ether balance for caller in ethBalance mapping array\r\n        uint256 balanceETH = ethBalance[acct];\r\n        // guard check to ensure the retrieved ether balance is more than 0 and not more than contract balance\r\n        require(balanceETH != 0, \"No ether stored in contract\");\r\n        require(address(this).balance >= balanceETH);\r\n        // deduct amount for caller in ethBalance mapping array\r\n        ethBalance[acct] -= balanceETH;\r\n        // transfer ether balance to caller\r\n        acct.transfer(balanceETH);\r\n    }\r\n\r\n    // series of get functions to retrieve data\r\n    // function to return total donations given in ETH\r\n    function showTotalDonationETH(address donator)\r\n        public\r\n        view\r\n        returns (uint256)\r\n    {\r\n        return totalDonationETH[donator];\r\n    }\r\n\r\n    // function to return total donations given in USD\r\n    function showTotalDonationUSD(address donator)\r\n        public\r\n        view\r\n        returns (uint256)\r\n    {\r\n        return totalDonationUSD[donator];\r\n    }\r\n\r\n    // function to return token balance\r\n    function showTokenBal(address donator) public view returns (uint256) {\r\n        return tokenBal[donator];\r\n    }\r\n\r\n    // function to return token redeemed\r\n    function showTokenRedeemed(address donator) public view returns (uint256) {\r\n        return tokenUsed[donator];\r\n    }\r\n\r\n    // function to return ETH balance in contract\r\n    function showContractETHBal(address charity) public view returns (uint256) {\r\n        return ethBalance[charity];\r\n    }\r\n\r\n    // series of deployer-only functions\r\n    // function for deployer to change fee percentage\r\n    function changeFee(uint256 newFee) public onlyOwner {\r\n        fee = newFee;\r\n    }\r\n\r\n    // function for deployer to add charity address\r\n    function addCharity(address charity) public onlyOwner {\r\n        charities.push(charity);\r\n    }\r\n\r\n    // function to return charities array\r\n    function showCharity() public view onlyOwner returns (address[] memory) {\r\n        return charities;\r\n    }\r\n\r\n    // function to current fee rate in contract\r\n    function showFee() public view onlyOwner returns (uint256) {\r\n        return fee;\r\n    }\r\n\r\n    // modifier to ensure that msg.sender is deployer\r\n    modifier onlyOwner {\r\n        require(msg.sender == owner, \"Only the owner can call this function.\");\r\n        _;\r\n    }\r\n}\r\n",
  "sourcePath": "C:/Users/seexy/OneDrive/Documents/VisualStudio/donation/contracts/DonationService.sol",
  "compiler": {
    "name": "solc",
    "version": "0.7.6+commit.7338295f.Emscripten.clang"
  },
  "schemaVersion": "3.3.3",
  "updatedAt": "2021-02-04T03:00:48.200Z",
  "networkType": "ethereum",
  "devdoc": {
    "kind": "dev",
    "methods": {
      "allowance(address,address)": {
        "details": "See {IERC20-allowance}."
      },
      "approve(address,uint256)": {
        "details": "See {IERC20-approve}. Requirements: - `spender` cannot be the zero address."
      },
      "balanceOf(address)": {
        "details": "See {IERC20-balanceOf}."
      },
      "decimals()": {
        "details": "Returns the number of decimals used to get its user representation. For example, if `decimals` equals `2`, a balance of `505` tokens should be displayed to a user as `5,05` (`505 / 10 ** 2`). Tokens usually opt for a value of 18, imitating the relationship between Ether and Wei. This is the value {ERC20} uses, unless {_setupDecimals} is called. NOTE: This information is only used for _display_ purposes: it in no way affects any of the arithmetic of the contract, including {IERC20-balanceOf} and {IERC20-transfer}."
      },
      "decreaseAllowance(address,uint256)": {
        "details": "Atomically decreases the allowance granted to `spender` by the caller. This is an alternative to {approve} that can be used as a mitigation for problems described in {IERC20-approve}. Emits an {Approval} event indicating the updated allowance. Requirements: - `spender` cannot be the zero address. - `spender` must have allowance for the caller of at least `subtractedValue`."
      },
      "increaseAllowance(address,uint256)": {
        "details": "Atomically increases the allowance granted to `spender` by the caller. This is an alternative to {approve} that can be used as a mitigation for problems described in {IERC20-approve}. Emits an {Approval} event indicating the updated allowance. Requirements: - `spender` cannot be the zero address."
      },
      "name()": {
        "details": "Returns the name of the token."
      },
      "symbol()": {
        "details": "Returns the symbol of the token, usually a shorter version of the name."
      },
      "totalSupply()": {
        "details": "See {IERC20-totalSupply}."
      },
      "transfer(address,uint256)": {
        "details": "See {IERC20-transfer}. Requirements: - `recipient` cannot be the zero address. - the caller must have a balance of at least `amount`."
      },
      "transferFrom(address,address,uint256)": {
        "details": "See {IERC20-transferFrom}. Emits an {Approval} event indicating the updated allowance. This is not required by the EIP. See the note at the beginning of {ERC20}. Requirements: - `sender` and `recipient` cannot be the zero address. - `sender` must have a balance of at least `amount`. - the caller must have allowance for ``sender``'s tokens of at least `amount`."
      }
    },
    "version": 1
  },
  "userdoc": {
    "kind": "user",
    "methods": {},
    "version": 1
  }
}